{
  "_format": "hh3-artifact-1",
  "contractName": "AgreementContract",
  "sourceName": "contracts/AgreementContract.sol",
  "abi": [
    {
      "inputs": [],
      "stateMutability": "nonpayable",
      "type": "constructor"
    },
    {
      "inputs": [
        {
          "internalType": "uint256",
          "name": "tokenId",
          "type": "uint256"
        }
      ],
      "name": "AgreementAlreadyFinalized",
      "type": "error"
    },
    {
      "inputs": [
        {
          "internalType": "string",
          "name": "agreementId",
          "type": "string"
        }
      ],
      "name": "AgreementIdAlreadyExists",
      "type": "error"
    },
    {
      "inputs": [
        {
          "internalType": "uint256",
          "name": "tokenId",
          "type": "uint256"
        }
      ],
      "name": "AgreementNotFound",
      "type": "error"
    },
    {
      "inputs": [
        {
          "internalType": "uint256",
          "name": "tokenId",
          "type": "uint256"
        }
      ],
      "name": "AgreementNotFullySigned",
      "type": "error"
    },
    {
      "inputs": [
        {
          "internalType": "uint256",
          "name": "tokenId",
          "type": "uint256"
        },
        {
          "internalType": "string",
          "name": "beneficiaryId",
          "type": "string"
        }
      ],
      "name": "BeneficiaryAlreadySigned",
      "type": "error"
    },
    {
      "inputs": [
        {
          "internalType": "uint256",
          "name": "tokenId",
          "type": "uint256"
        },
        {
          "internalType": "string",
          "name": "beneficiaryId",
          "type": "string"
        }
      ],
      "name": "BeneficiaryNotFound",
      "type": "error"
    },
    {
      "inputs": [
        {
          "internalType": "string",
          "name": "beneficiaryId",
          "type": "string"
        }
      ],
      "name": "DuplicateBeneficiaryId",
      "type": "error"
    },
    {
      "inputs": [
        {
          "internalType": "address",
          "name": "sender",
          "type": "address"
        },
        {
          "internalType": "uint256",
          "name": "tokenId",
          "type": "uint256"
        },
        {
          "internalType": "address",
          "name": "owner",
          "type": "address"
        }
      ],
      "name": "ERC721IncorrectOwner",
      "type": "error"
    },
    {
      "inputs": [
        {
          "internalType": "address",
          "name": "operator",
          "type": "address"
        },
        {
          "internalType": "uint256",
          "name": "tokenId",
          "type": "uint256"
        }
      ],
      "name": "ERC721InsufficientApproval",
      "type": "error"
    },
    {
      "inputs": [
        {
          "internalType": "address",
          "name": "approver",
          "type": "address"
        }
      ],
      "name": "ERC721InvalidApprover",
      "type": "error"
    },
    {
      "inputs": [
        {
          "internalType": "address",
          "name": "operator",
          "type": "address"
        }
      ],
      "name": "ERC721InvalidOperator",
      "type": "error"
    },
    {
      "inputs": [
        {
          "internalType": "address",
          "name": "owner",
          "type": "address"
        }
      ],
      "name": "ERC721InvalidOwner",
      "type": "error"
    },
    {
      "inputs": [
        {
          "internalType": "address",
          "name": "receiver",
          "type": "address"
        }
      ],
      "name": "ERC721InvalidReceiver",
      "type": "error"
    },
    {
      "inputs": [
        {
          "internalType": "address",
          "name": "sender",
          "type": "address"
        }
      ],
      "name": "ERC721InvalidSender",
      "type": "error"
    },
    {
      "inputs": [
        {
          "internalType": "uint256",
          "name": "tokenId",
          "type": "uint256"
        }
      ],
      "name": "ERC721NonexistentToken",
      "type": "error"
    },
    {
      "inputs": [],
      "name": "InvalidBeneficiaryCount",
      "type": "error"
    },
    {
      "inputs": [
        {
          "internalType": "address",
          "name": "owner",
          "type": "address"
        }
      ],
      "name": "OwnableInvalidOwner",
      "type": "error"
    },
    {
      "inputs": [
        {
          "internalType": "address",
          "name": "account",
          "type": "address"
        }
      ],
      "name": "OwnableUnauthorizedAccount",
      "type": "error"
    },
    {
      "inputs": [
        {
          "internalType": "uint256",
          "name": "tokenId",
          "type": "uint256"
        }
      ],
      "name": "OwnerAlreadySigned",
      "type": "error"
    },
    {
      "inputs": [],
      "name": "ReentrancyGuardReentrantCall",
      "type": "error"
    },
    {
      "inputs": [
        {
          "internalType": "uint256",
          "name": "provided",
          "type": "uint256"
        },
        {
          "internalType": "uint256",
          "name": "maxAllowed",
          "type": "uint256"
        }
      ],
      "name": "TooManyBeneficiaries",
      "type": "error"
    },
    {
      "inputs": [
        {
          "internalType": "uint256",
          "name": "tokenId",
          "type": "uint256"
        }
      ],
      "name": "WitnessAlreadySigned",
      "type": "error"
    },
    {
      "anonymous": false,
      "inputs": [
        {
          "indexed": true,
          "internalType": "uint256",
          "name": "tokenId",
          "type": "uint256"
        },
        {
          "indexed": false,
          "internalType": "uint256",
          "name": "timestamp",
          "type": "uint256"
        }
      ],
      "name": "AgreementFinalized",
      "type": "event"
    },
    {
      "anonymous": false,
      "inputs": [
        {
          "indexed": true,
          "internalType": "uint256",
          "name": "tokenId",
          "type": "uint256"
        },
        {
          "indexed": false,
          "internalType": "string",
          "name": "agreementId",
          "type": "string"
        },
        {
          "indexed": false,
          "internalType": "string",
          "name": "metadataUri",
          "type": "string"
        },
        {
          "indexed": false,
          "internalType": "uint256",
          "name": "beneficiaryCount",
          "type": "uint256"
        }
      ],
      "name": "AgreementMinted",
      "type": "event"
    },
    {
      "anonymous": false,
      "inputs": [
        {
          "indexed": true,
          "internalType": "uint256",
          "name": "tokenId",
          "type": "uint256"
        },
        {
          "indexed": false,
          "internalType": "string",
          "name": "newMetadataUri",
          "type": "string"
        },
        {
          "indexed": false,
          "internalType": "uint256",
          "name": "timestamp",
          "type": "uint256"
        }
      ],
      "name": "AgreementUpdated",
      "type": "event"
    },
    {
      "anonymous": false,
      "inputs": [
        {
          "indexed": true,
          "internalType": "address",
          "name": "owner",
          "type": "address"
        },
        {
          "indexed": true,
          "internalType": "address",
          "name": "approved",
          "type": "address"
        },
        {
          "indexed": true,
          "internalType": "uint256",
          "name": "tokenId",
          "type": "uint256"
        }
      ],
      "name": "Approval",
      "type": "event"
    },
    {
      "anonymous": false,
      "inputs": [
        {
          "indexed": true,
          "internalType": "address",
          "name": "owner",
          "type": "address"
        },
        {
          "indexed": true,
          "internalType": "address",
          "name": "operator",
          "type": "address"
        },
        {
          "indexed": false,
          "internalType": "bool",
          "name": "approved",
          "type": "bool"
        }
      ],
      "name": "ApprovalForAll",
      "type": "event"
    },
    {
      "anonymous": false,
      "inputs": [
        {
          "indexed": false,
          "internalType": "uint256",
          "name": "_fromTokenId",
          "type": "uint256"
        },
        {
          "indexed": false,
          "internalType": "uint256",
          "name": "_toTokenId",
          "type": "uint256"
        }
      ],
      "name": "BatchMetadataUpdate",
      "type": "event"
    },
    {
      "anonymous": false,
      "inputs": [
        {
          "indexed": true,
          "internalType": "uint256",
          "name": "tokenId",
          "type": "uint256"
        },
        {
          "indexed": false,
          "internalType": "string",
          "name": "beneficiaryId",
          "type": "string"
        },
        {
          "indexed": false,
          "internalType": "uint256",
          "name": "timestamp",
          "type": "uint256"
        }
      ],
      "name": "BeneficiarySigned",
      "type": "event"
    },
    {
      "anonymous": false,
      "inputs": [
        {
          "indexed": false,
          "internalType": "uint256",
          "name": "_tokenId",
          "type": "uint256"
        }
      ],
      "name": "MetadataUpdate",
      "type": "event"
    },
    {
      "anonymous": false,
      "inputs": [
        {
          "indexed": true,
          "internalType": "uint256",
          "name": "tokenId",
          "type": "uint256"
        },
        {
          "indexed": false,
          "internalType": "uint256",
          "name": "timestamp",
          "type": "uint256"
        }
      ],
      "name": "OwnerSigned",
      "type": "event"
    },
    {
      "anonymous": false,
      "inputs": [
        {
          "indexed": true,
          "internalType": "address",
          "name": "previousOwner",
          "type": "address"
        },
        {
          "indexed": true,
          "internalType": "address",
          "name": "newOwner",
          "type": "address"
        }
      ],
      "name": "OwnershipTransferred",
      "type": "event"
    },
    {
      "anonymous": false,
      "inputs": [
        {
          "indexed": true,
          "internalType": "address",
          "name": "from",
          "type": "address"
        },
        {
          "indexed": true,
          "internalType": "address",
          "name": "to",
          "type": "address"
        },
        {
          "indexed": true,
          "internalType": "uint256",
          "name": "tokenId",
          "type": "uint256"
        }
      ],
      "name": "Transfer",
      "type": "event"
    },
    {
      "anonymous": false,
      "inputs": [
        {
          "indexed": true,
          "internalType": "uint256",
          "name": "tokenId",
          "type": "uint256"
        },
        {
          "indexed": false,
          "internalType": "uint256",
          "name": "timestamp",
          "type": "uint256"
        }
      ],
      "name": "WitnessSigned",
      "type": "event"
    },
    {
      "inputs": [],
      "name": "MAX_BENEFICIARIES",
      "outputs": [
        {
          "internalType": "uint256",
          "name": "",
          "type": "uint256"
        }
      ],
      "stateMutability": "view",
      "type": "function"
    },
    {
      "inputs": [
        {
          "internalType": "address",
          "name": "to",
          "type": "address"
        },
        {
          "internalType": "uint256",
          "name": "tokenId",
          "type": "uint256"
        }
      ],
      "name": "approve",
      "outputs": [],
      "stateMutability": "nonpayable",
      "type": "function"
    },
    {
      "inputs": [
        {
          "internalType": "address",
          "name": "owner",
          "type": "address"
        }
      ],
      "name": "balanceOf",
      "outputs": [
        {
          "internalType": "uint256",
          "name": "",
          "type": "uint256"
        }
      ],
      "stateMutability": "view",
      "type": "function"
    },
    {
      "inputs": [
        {
          "internalType": "uint256",
          "name": "tokenId",
          "type": "uint256"
        }
      ],
      "name": "finalizeAgreement",
      "outputs": [],
      "stateMutability": "nonpayable",
      "type": "function"
    },
    {
      "inputs": [
        {
          "internalType": "uint256",
          "name": "tokenId",
          "type": "uint256"
        }
      ],
      "name": "getAgreement",
      "outputs": [
        {
          "components": [
            {
              "internalType": "string",
              "name": "agreementId",
              "type": "string"
            },
            {
              "internalType": "string[]",
              "name": "beneficiaryIds",
              "type": "string[]"
            },
            {
              "internalType": "uint256",
              "name": "beneficiaryCount",
              "type": "uint256"
            },
            {
              "internalType": "uint256",
              "name": "signedCount",
              "type": "uint256"
            },
            {
              "internalType": "bool",
              "name": "ownerSigned",
              "type": "bool"
            },
            {
              "internalType": "uint256",
              "name": "ownerSignedAt",
              "type": "uint256"
            },
            {
              "internalType": "bool",
              "name": "witnessSigned",
              "type": "bool"
            },
            {
              "internalType": "uint256",
              "name": "witnessedAt",
              "type": "uint256"
            },
            {
              "internalType": "bool",
              "name": "isFinalized",
              "type": "bool"
            }
          ],
          "internalType": "struct AgreementContract.AgreementData",
          "name": "",
          "type": "tuple"
        }
      ],
      "stateMutability": "view",
      "type": "function"
    },
    {
      "inputs": [
        {
          "internalType": "uint256",
          "name": "tokenId",
          "type": "uint256"
        }
      ],
      "name": "getApproved",
      "outputs": [
        {
          "internalType": "address",
          "name": "",
          "type": "address"
        }
      ],
      "stateMutability": "view",
      "type": "function"
    },
    {
      "inputs": [
        {
          "internalType": "uint256",
          "name": "tokenId",
          "type": "uint256"
        },
        {
          "internalType": "string",
          "name": "beneficiaryId",
          "type": "string"
        }
      ],
      "name": "getBeneficiarySignature",
      "outputs": [
        {
          "internalType": "bool",
          "name": "hasSigned",
          "type": "bool"
        },
        {
          "internalType": "uint256",
          "name": "signedAt",
          "type": "uint256"
        }
      ],
      "stateMutability": "view",
      "type": "function"
    },
    {
      "inputs": [
        {
          "internalType": "string",
          "name": "agreementId",
          "type": "string"
        }
      ],
      "name": "getTokenIdByAgreementId",
      "outputs": [
        {
          "internalType": "uint256",
          "name": "",
          "type": "uint256"
        }
      ],
      "stateMutability": "view",
      "type": "function"
    },
    {
      "inputs": [
        {
          "internalType": "address",
          "name": "owner",
          "type": "address"
        },
        {
          "internalType": "address",
          "name": "operator",
          "type": "address"
        }
      ],
      "name": "isApprovedForAll",
      "outputs": [
        {
          "internalType": "bool",
          "name": "",
          "type": "bool"
        }
      ],
      "stateMutability": "view",
      "type": "function"
    },
    {
      "inputs": [
        {
          "internalType": "uint256",
          "name": "tokenId",
          "type": "uint256"
        }
      ],
      "name": "isFullySigned",
      "outputs": [
        {
          "internalType": "bool",
          "name": "",
          "type": "bool"
        }
      ],
      "stateMutability": "view",
      "type": "function"
    },
    {
      "inputs": [
        {
          "internalType": "string",
          "name": "agreementId",
          "type": "string"
        },
        {
          "internalType": "string",
          "name": "metadataUri",
          "type": "string"
        },
        {
          "internalType": "string[]",
          "name": "beneficiaryIds",
          "type": "string[]"
        }
      ],
      "name": "mintAgreement",
      "outputs": [
        {
          "internalType": "uint256",
          "name": "",
          "type": "uint256"
        }
      ],
      "stateMutability": "nonpayable",
      "type": "function"
    },
    {
      "inputs": [],
      "name": "name",
      "outputs": [
        {
          "internalType": "string",
          "name": "",
          "type": "string"
        }
      ],
      "stateMutability": "view",
      "type": "function"
    },
    {
      "inputs": [],
      "name": "owner",
      "outputs": [
        {
          "internalType": "address",
          "name": "",
          "type": "address"
        }
      ],
      "stateMutability": "view",
      "type": "function"
    },
    {
      "inputs": [
        {
          "internalType": "uint256",
          "name": "tokenId",
          "type": "uint256"
        }
      ],
      "name": "ownerOf",
      "outputs": [
        {
          "internalType": "address",
          "name": "",
          "type": "address"
        }
      ],
      "stateMutability": "view",
      "type": "function"
    },
    {
      "inputs": [
        {
          "internalType": "uint256",
          "name": "tokenId",
          "type": "uint256"
        },
        {
          "internalType": "string",
          "name": "beneficiaryId",
          "type": "string"
        }
      ],
      "name": "recordBeneficiarySignature",
      "outputs": [],
      "stateMutability": "nonpayable",
      "type": "function"
    },
    {
      "inputs": [
        {
          "internalType": "uint256",
          "name": "tokenId",
          "type": "uint256"
        }
      ],
      "name": "recordOwnerSignature",
      "outputs": [],
      "stateMutability": "nonpayable",
      "type": "function"
    },
    {
      "inputs": [
        {
          "internalType": "uint256",
          "name": "tokenId",
          "type": "uint256"
        }
      ],
      "name": "recordWitnessSignature",
      "outputs": [],
      "stateMutability": "nonpayable",
      "type": "function"
    },
    {
      "inputs": [],
      "name": "renounceOwnership",
      "outputs": [],
      "stateMutability": "nonpayable",
      "type": "function"
    },
    {
      "inputs": [
        {
          "internalType": "address",
          "name": "from",
          "type": "address"
        },
        {
          "internalType": "address",
          "name": "to",
          "type": "address"
        },
        {
          "internalType": "uint256",
          "name": "tokenId",
          "type": "uint256"
        }
      ],
      "name": "safeTransferFrom",
      "outputs": [],
      "stateMutability": "nonpayable",
      "type": "function"
    },
    {
      "inputs": [
        {
          "internalType": "address",
          "name": "from",
          "type": "address"
        },
        {
          "internalType": "address",
          "name": "to",
          "type": "address"
        },
        {
          "internalType": "uint256",
          "name": "tokenId",
          "type": "uint256"
        },
        {
          "internalType": "bytes",
          "name": "data",
          "type": "bytes"
        }
      ],
      "name": "safeTransferFrom",
      "outputs": [],
      "stateMutability": "nonpayable",
      "type": "function"
    },
    {
      "inputs": [
        {
          "internalType": "address",
          "name": "operator",
          "type": "address"
        },
        {
          "internalType": "bool",
          "name": "approved",
          "type": "bool"
        }
      ],
      "name": "setApprovalForAll",
      "outputs": [],
      "stateMutability": "nonpayable",
      "type": "function"
    },
    {
      "inputs": [
        {
          "internalType": "bytes4",
          "name": "interfaceId",
          "type": "bytes4"
        }
      ],
      "name": "supportsInterface",
      "outputs": [
        {
          "internalType": "bool",
          "name": "",
          "type": "bool"
        }
      ],
      "stateMutability": "view",
      "type": "function"
    },
    {
      "inputs": [],
      "name": "symbol",
      "outputs": [
        {
          "internalType": "string",
          "name": "",
          "type": "string"
        }
      ],
      "stateMutability": "view",
      "type": "function"
    },
    {
      "inputs": [
        {
          "internalType": "uint256",
          "name": "tokenId",
          "type": "uint256"
        }
      ],
      "name": "tokenURI",
      "outputs": [
        {
          "internalType": "string",
          "name": "",
          "type": "string"
        }
      ],
      "stateMutability": "view",
      "type": "function"
    },
    {
      "inputs": [],
      "name": "totalSupply",
      "outputs": [
        {
          "internalType": "uint256",
          "name": "",
          "type": "uint256"
        }
      ],
      "stateMutability": "view",
      "type": "function"
    },
    {
      "inputs": [
        {
          "internalType": "address",
          "name": "from",
          "type": "address"
        },
        {
          "internalType": "address",
          "name": "to",
          "type": "address"
        },
        {
          "internalType": "uint256",
          "name": "tokenId",
          "type": "uint256"
        }
      ],
      "name": "transferFrom",
      "outputs": [],
      "stateMutability": "nonpayable",
      "type": "function"
    },
    {
      "inputs": [
        {
          "internalType": "address",
          "name": "newOwner",
          "type": "address"
        }
      ],
      "name": "transferOwnership",
      "outputs": [],
      "stateMutability": "nonpayable",
      "type": "function"
    },
    {
      "inputs": [
        {
          "internalType": "uint256",
          "name": "tokenId",
          "type": "uint256"
        },
        {
          "internalType": "string",
          "name": "newMetadataUri",
          "type": "string"
        }
      ],
      "name": "updateAgreement",
      "outputs": [],
      "stateMutability": "nonpayable",
      "type": "function"
    }
  ],
  "bytecode": "0x60806040523461037757604080519081016001600160401b0381118282101761028d576040908152600f82526e15d15354d4081059dc99595b595b9d608a1b602083015280519081016001600160401b0381118282101761028d576040526005815264057454d53560dc1b602082015281516001600160401b03811161028d575f54600181811c9116801561036d575b602082101461026f57601f811161030b575b50602092601f82116001146102ac57928192935f926102a1575b50508160011b915f199060031b1c1916175f555b80516001600160401b03811161028d57600154600181811c91168015610283575b602082101461026f57601f811161020c575b50602091601f82116001146101ac579181925f926101a1575b50508160011b915f199060031b1c1916176001555b331561018e5760078054336001600160a01b03198216811790925560405191906001600160a01b03167f8be0079c531659141344cd1fd0a4f28419497f9722a3daafe3b4186f6b6457e05f80a36001600855611fa2908161037c8239f35b631e4fbdf760e01b5f525f60045260245ffd5b015190505f8061011b565b601f1982169260015f52805f20915f5b8581106101f4575083600195106101dc575b505050811b01600155610130565b01515f1960f88460031b161c191690555f80806101ce565b919260206001819286850151815501940192016101bc565b60015f527fb10e2d527612073b26eecdfd717e6a320cf44b4afac2b0732d9fcbe2b7fa0cf6601f830160051c81019160208410610265575b601f0160051c01905b81811061025a5750610102565b5f815560010161024d565b9091508190610244565b634e487b7160e01b5f52602260045260245ffd5b90607f16906100f0565b634e487b7160e01b5f52604160045260245ffd5b015190505f806100bb565b601f198216935f8052805f20915f5b8681106102f357508360019596106102db575b505050811b015f556100cf565b01515f1960f88460031b161c191690555f80806102ce565b919260206001819286850151815501940192016102bb565b5f80527f290decd9548b62a8d60345a988386fc84ba6bc95484008f6362f93160ef3e563601f830160051c81019160208410610363575b601f0160051c01905b81811061035857506100a1565b5f815560010161034b565b9091508190610342565b90607f169061008f565b5f80fdfe60a0806040526004361015610012575f80fd5b5f3560e01c90816301ffc9a7146116bf5750806306fdde031461161d578063081812fc146115e1578063095ea7b3146114f757806318160ddd146114da5780632348dd18146114bf57806323b872dd146114a857806342842e0e146114795780634f9f6fe61461126f57806356edad871461121e5780635fdc05ec146111775780636352211e1461114757806370a08231146110f6578063715018a61461109b5780637344653a14610f5157806373e2b51d14610e975780638da5cb5b14610e6f57806395d89b4114610da55780639744742b14610ccd578063a22cb46514610c32578063b6ceae9d14610ae3578063b88d4fde14610a76578063c87b56dd14610a3f578063d3a5aa93146109e8578063e4ceebfc1461097c578063e56c84fe14610231578063e985e9c5146101da5763f2fde38b14610150575f80fd5b346101d65760203660031901126101d657610169611768565b610171611ccf565b6001600160a01b031680156101c357600780546001600160a01b0319811683179091556001600160a01b03167f8be0079c531659141344cd1fd0a4f28419497f9722a3daafe3b4186f6b6457e05f80a3005b631e4fbdf760e01b5f525f60045260245ffd5b5f80fd5b346101d65760403660031901126101d6576101f3611768565b6101fb61177e565b9060018060a01b03165f52600560205260405f209060018060a01b03165f52602052602060ff60405f2054166040519015158152f35b346101d65760603660031901126101d6576004356001600160401b0381116101d6576102619036906004016117ce565b6024356001600160401b0381116101d6576102809036906004016117ce565b919092604435916001600160401b0383116101d657366023840112156101d65782600401356001600160401b0381116101d6573660248260051b860101116101d6576102ca611ccf565b6102d2611cf6565b60405182848237602081848101600e81520301902054610957576102f7600954611b74565b958660095581156109485760648211610930575f5b828110156103995761032960248260051b88010160248801611be3565b895f52600d60205260ff61034160405f208385611b21565b54166103715760019291610361918b5f52600d60205260405f2091611b21565b805460ff1916831790550161030c565b61039560405192839263c097170960e01b8452602060048501526024840191611b3a565b0390fd5b508587955f60805260206080526040516103b56080518261184a565b5f8152331561091d575f8881526080516002905260409020546001600160a01b031680151590816108e9575b335f81815260808051600390526040808320805460010190558d8352905160029052812080546001600160a01b031916831790558b919083907fddf252ad1be2c89b69c2b068fc378daa952ba7f163c4a11628f55a4df523b3ef9080a4506108d657333b6107c0575b5061045f610459368486611886565b88611d16565b865f52600a6080515260405f20906001600160401b0386116106c25761048f8661048984546118bc565b84611c2b565b5f86601f811160011461075b57806104bb925f91610750575b508160011b915f199060031b1c19161790565b82555b60018201906801000000000000000086116106c25781548683558087106106d6575b50908160248a9896999795949301915f526080515f20915f905b8682106105c15750505050956105a7916008888560027f9c68d6969506135523dccd60451df28e0901825ffe3ce9cd42a401b58d180fd29a9b01555f60038201556004810160ff1981541690555f60058201556006810160ff1981541690555f60078201550160ff1981541690558760405186888237868101600e815281608051910301902055610598604051968796606088526060880191611b3a565b91858303608051870152611b3a565b9060408301520390a2600160085560405190815260805190f35b90919293949597999698506105d98160248501611be3565b906001600160401b0382116106c2576105fc826105f688546118bc565b88611c2b565b5f90601f8311600114610656578260019492938594610630935f9261064b575b50508160011b915f199060031b1c19161790565b86555b60805101940191018a989699979594939291926104fa565b013590505f8061061c565b865f526080515f20915f5b601f19851681106106a957509260019492859492859383601f19811610610690575b505050811b018655610633565b01355f19600384901b60f8161c191690558f8080610683565b8282013584556080516001909401939182019101610661565b634e487b7160e01b5f52604160045260245ffd5b825f52866080515f2091820191015b8181106106f257506104e0565b806106ff600192546118bc565b8061070c575b50016106e5565b601f8111831461072157505f81555b8c610705565b61073e90825f5283601f6080515f20920160051c82019101611c15565b805f525f60805181208183555561071b565b90508901358b6104a8565b50601f19871690835f52876080515f20925f5b8181106107a457501061078b575b5050600186811b0182556104be565b8801355f19600389901b60f8161c19169055888061077c565b8b8401358555608051600190950194938401938b93500161076e565b60405190630a85bd0160e11b82523360048301525f60248301528860448301526080606483015281806107fa608051936084830190611744565b03815f335af15f918161088f575b5061085f573d15610858573d61081d8161186b565b9061082b604051928361184a565b8152805f3d91608051013e5b8051908161085257633250574960e11b5f523360045260245ffd5b60805101fd5b6060610837565b6001600160e01b03191663757a42ff60e11b0161087c578761044a565b633250574960e11b5f523360045260245ffd5b9091506080513d608051116108cf575b6108a9818361184a565b8160805191810103126101d657516001600160e01b0319811681036101d6579089610808565b503d61089f565b6339e3563760e11b5f525f60045260245ffd5b5f8a815260046020526040902080546001600160a01b0319169055805f5260036080515260405f205f1981540190556103e1565b633250574960e11b5f525f60045260245ffd5b50633917ca2360e11b5f52600452606460245260445ffd5b636849c3cf60e01b5f5260045ffd5b50610395604051928392635e13332760e01b8452602060048501526024840191611b3a565b346101d65760203660031901126101d65760043561099981611ca2565b5f52600a602052602060405f2060ff60048201541690816109d9575b816109c6575b506040519015158152f35b90506002600382015491015414826109bb565b600681015460ff1691506109b5565b346101d6576040610a306109fb366117fb565b610a06839493611ca2565b835f52600b60205260ff610a1d865f208385611b21565b5416935f52600c602052845f2091611b21565b54825191151582526020820152f35b346101d65760203660031901126101d657610a72610a5e600435611bb3565b604051918291602083526020830190611744565b0390f35b346101d65760803660031901126101d657610a8f611768565b610a9761177e565b90604435606435926001600160401b0384116101d657366023850112156101d657610acf610ae1943690602481600401359101611886565b92610adb838383611994565b33611e36565b005b346101d657610af1366117fb565b90610afa611ccf565b610b02611cf6565b610b0b83611ca2565b825f52600a60205260405f209060ff600883015416610c1f57610b3b610b35939293368484611886565b85611d16565b6004830160ff1981541690555f60058401556006830160ff1981541690555f60078401555f9160018401925b8354811015610bdb57600190845f525f610b858260208320016118f4565b888252600b602052602060408320916040518281835195828501968088845e82019081520301902060ff1981541690558a8452600c825260408420604051938492518091845e8201908152030190205501610b67565b5f600386015560405186907f2dfa58bcb4144a06e96ff76a3d0f606267541b03787b0efc7c14d41cdf17c8de9080610c1542878984611b96565b0390a26001600855005b836328c0c51b60e11b5f5260045260245ffd5b346101d65760403660031901126101d657610c4b611768565b602435908115158092036101d6576001600160a01b0316908115610cba57335f52600560205260405f20825f5260205260405f2060ff1981541660ff83161790556040519081527f17307eab39ab6107e8899845ad3d59bd9653f200f220920489ca2b5937696c3160203392a3005b50630b61174360e31b5f5260045260245ffd5b346101d65760203660031901126101d657600435610ce9611ccf565b610cf1611cf6565b610cfa81611ca2565b805f52600a60205260405f20600881019081549060ff8216610c1f5760ff60048201541615908115610d95575b8115610d81575b50610d6e5760019060ff19161790557f949a71f9f7168ce4d3b5dab2d92b6afdc23ef6804597dc12c36b8eb961f1af966020604051428152a26001600855005b8263702958af60e01b5f5260045260245ffd5b905060026003820154910154141584610d2e565b600681015460ff16159150610d27565b346101d6575f3660031901126101d6576040515f600154610dc5816118bc565b8084529060018116908115610e4b5750600114610ded575b610a7283610a5e8185038261184a565b60015f9081527fb10e2d527612073b26eecdfd717e6a320cf44b4afac2b0732d9fcbe2b7fa0cf6939250905b808210610e3157509091508101602001610a5e610ddd565b919260018160209254838588010152019101909291610e19565b60ff191660208086019190915291151560051b84019091019150610a5e9050610ddd565b346101d6575f3660031901126101d6576007546040516001600160a01b039091168152602090f35b346101d65760203660031901126101d657600435610eb3611ccf565b610ebb611cf6565b610ec481611ca2565b805f52600a60205260405f2060ff600882015416610f3e5760048101805460ff8116610f2b5760019060ff19161790556005429101557fa6555a9913dd9884cb5e0551171392d3a6e34ae011207d6255bd6b64cd0925476020604051428152a26001600855005b83636edc1ca360e01b5f5260045260245ffd5b506328c0c51b60e11b5f5260045260245ffd5b346101d657610f5f366117fb565b9190610f69611ccf565b610f71611cf6565b610f7a82611ca2565b815f52600a60205260405f209260ff60088501541661108857825f52600b60205260ff610fab60405f208385611b21565b541661106a57825f52600d60205260ff610fc960405f208385611b21565b54161561104c57600383947f62446b0d92e6eb1258767158c1546868c03ef2269ec91a9d4a9debfb28ac91ab945f52600b60205261100b60405f208486611b21565b600160ff19825416179055855f52600c6020524261102d60405f208587611b21565b55016110398154611b74565b9055610c15604051928392429184611b96565b60405163f324d1eb60e01b8152918291610395918560048501611b5a565b604051634fe43d8360e11b8152918291610395918560048501611b5a565b826328c0c51b60e11b5f5260045260245ffd5b346101d6575f3660031901126101d6576110b3611ccf565b600780546001600160a01b031981169091555f906001600160a01b03167f8be0079c531659141344cd1fd0a4f28419497f9722a3daafe3b4186f6b6457e08280a3005b346101d65760203660031901126101d6576001600160a01b03611117611768565b168015611134575f526003602052602060405f2054604051908152f35b6322718ad960e21b5f525f60045260245ffd5b346101d65760203660031901126101d6576020611165600435611c6e565b6040516001600160a01b039091168152f35b346101d65760203660031901126101d657600435611193611ccf565b61119b611cf6565b6111a481611ca2565b805f52600a60205260405f2060ff600882015416610f3e5760068101805460ff811661120b5760019060ff19161790556007429101557f21331c83191db0aadddca04e38ab75957fc471e1d685eee18b74eb30e97694096020604051428152a26001600855005b83632fd3378560e11b5f5260045260245ffd5b346101d65760203660031901126101d6576004356001600160401b0381116101d6576020611251819236906004016117ce565b91908260405193849283378101600e81520301902054604051908152f35b346101d65760203660031901126101d6576004355f6101006040516112938161182e565b60608152606060208201528260408201528260608201528260808201528260a08201528260c08201528260e082015201526112cd81611ca2565b5f52600a60205260405f206040516112e48161182e565b6112ed826118f4565b8152600182019182546001600160401b0381116106c2576040519361131860208360051b018661184a565b81855260208501905f5260205f205f915b83831061145c575050505060208201928352600281015490604083019182526003810154906060840191825260ff600482015416608085019015158152600582015460a0860190815260ff6006840154169160c08701921515835260ff600860078601549560e08a0196875201541694610100880195151586526113c26040519860208a525161012060208b01526101408a0190611744565b985196601f19898b030160408a01528751808b5260208b01906020808d8360051b01019a01915f905b82821061142f575050505088995051606089015251608088015251151560a08701525160c086015251151560e0850152516101008401525115156101208301520390f35b9091929a6020808f6001938f61144e92601f1990830301875251611744565b9d01920192019092916113eb565b60016020819261146b856118f4565b815201920192019190611329565b346101d657610ae161148a36611794565b906040519261149a60208561184a565b5f8452610adb838383611994565b346101d657610ae16114b936611794565b91611994565b346101d6575f3660031901126101d657602060405160648152f35b346101d6575f3660031901126101d6576020600954604051908152f35b346101d65760403660031901126101d657611510611768565b60243561151c81611c6e565b331515806115ce575b806115a1575b61158e5781906001600160a01b0384811691167f8c5be1e5ebec7d5bd14f71427d1e84f3dd0314c0f7b2291e5b200ac8c7c3b9255f80a45f90815260046020526040902080546001600160a01b0319166001600160a01b03909216919091179055005b63a9fbf51f60e01b5f523360045260245ffd5b506001600160a01b0381165f90815260056020908152604080832033845290915290205460ff161561152b565b506001600160a01b038116331415611525565b346101d65760203660031901126101d6576004356115fe81611c6e565b505f526004602052602060018060a01b0360405f205416604051908152f35b346101d6575f3660031901126101d6576040515f5f5461163c816118bc565b8084529060018116908115610e4b575060011461166357610a7283610a5e8185038261184a565b5f8080527f290decd9548b62a8d60345a988386fc84ba6bc95484008f6362f93160ef3e563939250905b8082106116a557509091508101602001610a5e610ddd565b91926001816020925483858801015201910190929161168d565b346101d65760203660031901126101d6576004359063ffffffff60e01b82168092036101d657602091632483248360e11b8114908115611701575b5015158152f35b6380ac58cd60e01b811491508115611733575b8115611722575b50836116fa565b6301ffc9a760e01b1490508361171b565b635b5e139f60e01b81149150611714565b805180835260209291819084018484015e5f828201840152601f01601f1916010190565b600435906001600160a01b03821682036101d657565b602435906001600160a01b03821682036101d657565b60609060031901126101d6576004356001600160a01b03811681036101d657906024356001600160a01b03811681036101d6579060443590565b9181601f840112156101d6578235916001600160401b0383116101d657602083818601950101116101d657565b9060406003198301126101d65760043591602435906001600160401b0382116101d65761182a916004016117ce565b9091565b61012081019081106001600160401b038211176106c257604052565b90601f801991011681019081106001600160401b038211176106c257604052565b6001600160401b0381116106c257601f01601f191660200190565b9291926118928261186b565b916118a0604051938461184a565b8294818452818301116101d6578281602093845f960137010152565b90600182811c921680156118ea575b60208310146118d657565b634e487b7160e01b5f52602260045260245ffd5b91607f16916118cb565b9060405191825f825492611907846118bc565b8084529360018116908115611972575060011461192e575b5061192c9250038361184a565b565b90505f9291925260205f20905f915b81831061195657505090602061192c928201015f61191f565b602091935080600191548385890101520191019091849261193d565b90506020925061192c94915060ff191682840152151560051b8201015f61191f565b6001600160a01b039091169190821561091d575f828152600260205260409020546001600160a01b031692829033151580611a8c575b5084611a59575b805f52600360205260405f2060018154019055815f52600260205260405f20816bffffffffffffffffffffffff60a01b825416179055847fddf252ad1be2c89b69c2b068fc378daa952ba7f163c4a11628f55a4df523b3ef5f80a46001600160a01b0316808303611a4157505050565b6364283d7b60e01b5f5260045260245260445260645ffd5b5f82815260046020526040902080546001600160a01b0319169055845f52600360205260405f205f1981540190556119d1565b90915080611ad0575b15611aa25782905f6119ca565b8284611aba57637e27328960e01b5f5260045260245ffd5b63177e802f60e01b5f523360045260245260445ffd5b503384148015611aff575b80611a9557505f838152600460205260409020546001600160a01b03163314611a95565b505f84815260056020908152604080832033845290915290205460ff16611adb565b6020919283604051948593843782019081520301902090565b908060209392818452848401375f828201840152601f01601f1916010190565b604090611b71949281528160208201520191611b3a565b90565b5f198114611b825760010190565b634e487b7160e01b5f52601160045260245ffd5b939291602091611bae91604087526040870191611b3a565b930152565b611bbc81611c6e565b505f526006602052611bd060405f206118f4565b5f604051611bdf60208261184a565b5290565b903590601e19813603018212156101d657018035906001600160401b0382116101d6576020019181360383136101d657565b818110611c20575050565b5f8155600101611c15565b9190601f8111611c3a57505050565b61192c925f5260205f20906020601f840160051c83019310611c64575b601f0160051c0190611c15565b9091508190611c57565b5f818152600260205260409020546001600160a01b0316908115611c90575090565b637e27328960e01b5f5260045260245ffd5b80158015611cc4575b611cb25750565b63f54e9bfb60e01b5f5260045260245ffd5b506009548111611cab565b6007546001600160a01b03163303611ce357565b63118cdaa760e01b5f523360045260245ffd5b600260085414611d07576002600855565b633ee5aeb560e01b5f5260045ffd5b919091805f52600660205260405f2083516001600160401b0381116106c257611d438161048984546118bc565b6020601f8211600114611dae57816020949392611d97927ff8e1a15aba9398e019f0b49df1a4fde98ee17ae345cb5f6b5e2c27f5033e8ce797985f92611da35750508160011b915f199060031b1c19161790565b90555b604051908152a1565b015190505f8061061c565b601f19821695835f52815f20965f5b818110611e1e575096600192849260209796957ff8e1a15aba9398e019f0b49df1a4fde98ee17ae345cb5f6b5e2c27f5033e8ce7999a10611e06575b505050811b019055611d9a565b01515f1960f88460031b161c191690555f8080611df9565b83830151895560019098019760209384019301611dbd565b823b611e44575b5050505050565b604051630a85bd0160e11b81526001600160a01b039182166004820152918116602483015260448201939093526080606482015291169160209082908190611e90906084830190611744565b03815f865af15f9181611f27575b50611ef357503d15611eec573d611eb48161186b565b90611ec2604051928361184a565b81523d5f602083013e5b80519081611ee75782633250574960e11b5f5260045260245ffd5b602001fd5b6060611ecc565b6001600160e01b03191663757a42ff60e11b01611f1557505f80808080611e3d565b633250574960e11b5f5260045260245ffd5b9091506020813d602011611f64575b81611f436020938361184a565b810103126101d657516001600160e01b0319811681036101d657905f611e9e565b3d9150611f3656fea26469706673582212203903c5ec48f2ddbf26633ce65d92e6afe29ce0601accac2fecc06b227d99253464736f6c634300081c0033",
  "linkReferences": {},
  "deployedLinkReferences": {},
  "immutableReferences": {},
  "inputSourceName": "project/contracts/AgreementContract.sol",
  "buildInfoId": "solc-0_8_28-004ebbae473cf66079ecb63a4f859a80bdef175e"
}